:100000000C9434000C9451000C9451000C94510049
:100010000C9451000C9451000C9451000C9451001C
:100020000C9451000C9451000C9451000C9451000C
:100030000C9451000C9451000C9451000C945100FC
:100040000C9451000C9451000C9451000C945100EC
:100050000C9451000C9451000C9451000C945100DC
:100060000C9451000C94510011241FBECFEFD8E026
:10007000DEBFCDBF11E0A0E0B1E0EEEAFEE002C0DD
:1000800005900D92AA31B107D9F711E0AAE1B1E0CC
:1000900001C01D92A232B107E1F70E94AD000C949D
:1000A00055070C940000CF93DF93CDB7DEB789E6F8
:1000B00090E022E0FC0120838DE390E021E0FC0150
:1000C0002083DF91CF910895CF93DF93CDB7DEB733
:1000D00080EB90E0FC01108281EB90E021E0FC01DC
:1000E000208380E790E023E0FC01208383EB90E015
:1000F00020E1FC012083DF91CF910895CF93DF931E
:1001000000D000D000D0CDB7DEB79E838D831A8299
:10011000198214C01C821B8205C08B819C810196B0
:100120009C838B832B813C818D819E81281739078D
:10013000A4F389819A8101969A83898389819A811E
:10014000803127E2920734F326960FB6F894DEBF8B
:100150000FBECDBFDF91CF910895CF93DF9300D035
:1001600000D0CDB7DEB784E290E0FC0110828AE2D5
:1001700090E027E0FC0120838EE790E0FC011082F4
:1001800010921E0110921D0110921C010E94A306E4
:100190000E948B020E94500664E081E00E94EB0501
:1001A00081E291E09093200180931F0119821A82CD
:1001B0001B821C820E94070685E290E025E230E067
:1001C000F90120812D7FFC0120830E941D01809375
:1001D00021018C81282F30E08B81482F50E08A81CB
:1001E000682F70E08981882F90E00E94130280912F
:1001F00021010E94F9060E947B020E94A30500973C
:1002000061F040E150E0CE010196BC0180E090E059
:100210000E94B40589810E94F9060E944807CCCF4C
:10022000000000000F9392E094B90AE593B1927038
:10023000C9F30A95D9F70F9108950F9380E0A0E0D4
:10024000B4E008E093B19270E9F393B19270E9F7EA
:10025000000000000000000000000000000000009E
:10026000000000000000000000000000000000008E
:10027000000000000000000000000000000000007E
:10028000000000000000000000000000000000006E
:1002900093B196959170880F892B0A9599F60F91D5
:1002A000089593B19270E9F393B19270E9F70895CC
:1002B00090E094B900000000000000000000000081
:1002C000000000000000000000000000000000002E
:1002D000000000000000000000000000000000001E
:1002E000000000000000000000000000000000000E
:1002F0000000000038E0282F2078B1F50000000051
:10030000000092E094B9000000000000000000002E
:1003100000000000000000000000000000000000DD
:1003200000000000000000000000000000000000CD
:1003300000000000000000000000000000000000BD
:1003400000000000000000000000000000000000AD
:10035000000000000000000000000000000000009D
:1003600090E094B90C94EA010000000092E094B986
:10037000000000000000000000000000000000007D
:100380000000000000000000000090E094B90000B0
:10039000000000000000000000000000000000005D
:1003A000000000000000000000000000000000004D
:1003B000000000000000000000000000000000003D
:1003C000000000000000000000000000000000002D
:1003D00000000000880F282F3A9511F00C947C0142
:1003E000089592E094B900000000000000000000B1
:1003F00000000000000000000000000000000000FD
:1004000000000000000000000000000000000000EC
:1004100000000000000000000000000000000000DC
:1004200090E094B908952F934F936F930E945801D1
:100430008F910E947A018F910E947A018F910E9480
:100440007A010E94F1010895CF93DF931F92CDB7F7
:10045000DEB78CE490E023E5FC0120838DE490E09E
:10046000FC0110828EE490E0FC01808189830F9072
:10047000DF91CF910895CF93DF93CDB7DEB785E2BB
:1004800090E025E230E0F90120812B7FFC01208300
:10049000DF91CF910895CF93DF93CDB7DEB785E29B
:1004A00090E025E230E0F90120812460FC01208306
:1004B000DF91CF910895CF93DF93CDB7DEB785E27B
:1004C00090E025E230E0F90120812E7FFC012083BD
:1004D000DF91CF910895CF93DF93CDB7DEB785E25B
:1004E00090E025E230E0F90120812160FC012083C9
:1004F000DF91CF910895CF93DF93CDB7DEB784E23C
:1005000090E024E230E0F90120812D62FC0120839B
:10051000DF91CF910895CF93DF93CDB7DEB70E94DF
:100520007B020E9424020E944B020E945B0281E037
:1005300090E090931B0180931A01DF91CF91089571
:10054000CF93DF931F92CDB7DEB789838EE490E01F
:100550002981FC01208300008DE490E0FC01808172
:100560008823D4F78EE490E0FC0180810F90DF9126
:10057000CF910895CF93DF9300D000D01F92CDB7D5
:10058000DEB789837B836A835D834C830E943B0251
:1005900089818F710E94A00212C080E00E94A00297
:1005A000282F8A819B81FC0120838A819B8101966F
:1005B0009B838A838C819D8101979D838C838C8111
:1005C0009D81009751F70E944B020F900F900F9062
:1005D0000F900F90DF91CF910895CF93DF9300D0CC
:1005E00000D01F92CDB7DEB789837B836A835D839A
:1005F0004C830E943B0289818F7180620E94A0021D
:100600000BC08A819B81FC0180810E94A0028A81AB
:100610009B8101969B838A838C819D819C012150C3
:1006200031093D832C83009761F70E944B020F90A4
:100630000F900F900F900F90DF91CF910895CF936F
:10064000DF931F92CDB7DEB741E050E0CE010196B7
:10065000BC0180E00E94BA0289810F90DF91CF91A6
:100660000895CF93DF931F92CDB7DEB741E050E0FE
:10067000CE010196BC0181E00E94BA0289810F90EF
:10068000DF91CF910895CF93DF931F92CDB7DEB75F
:1006900041E050E0CE010196BC0182E00E94BA0226
:1006A00089810F90DF91CF910895CF93DF931F92AF
:1006B000CDB7DEB741E050E0CE010196BC0183E04A
:1006C0000E94BA0289810F90DF91CF910895CF9354
:1006D000DF931F92CDB7DEB741E050E0CE01019627
:1006E000BC0184E00E94BA0289810F90DF91CF9112
:1006F0000895CF93DF931F92CDB7DEB741E050E06E
:10070000CE010196BC0185E00E94BA0289810F905A
:10071000DF91CF910895CF93DF931F92CDB7DEB7CE
:1007200041E050E0CE010196BC0186E00E94BA0291
:1007300089810F90DF91CF910895CF93DF931F921E
:10074000CDB7DEB741E050E0CE010196BC0187E0B5
:100750000E94BA0289810F90DF91CF910895CF93C3
:10076000DF931F92CDB7DEB741E050E0CE01019696
:10077000BC0188E00E94BA0289810F90DF91CF917D
:100780000895CF93DF931F92CDB7DEB741E050E0DD
:10079000CE010196BC0189E00E94BA0289810F90C6
:1007A000DF91CF910895CF93DF9300D000D0CDB7E4
:1007B000DEB79A8389837C836B8389819A818230B7
:1007C000910564F48981865F282F8B819C8145E0A7
:1007D00050E0BC01822F0E94BA020BC08981865F63
:1007E000282F8B819C8141E050E0BC01822F0E9428
:1007F000BA020F900F900F900F90DF91CF91089554
:10080000CF93DF9300D0CDB7DEB79A8389838981F8
:100810009A8145E050E0BC0180E10E94BA020F904D
:100820000F90DF91CF910895CF93DF9300D01F9267
:10083000CDB7DEB79B838A838A818F5E282F41E004
:1008400050E0CE010196BC01822F0E94BA0289813C
:100850000F900F900F90DF91CF910895CF93DF937A
:100860001F92CDB7DEB741E050E0CE010196BC014A
:1008700087E10E94BA0289810F90DF91CF9108959C
:10088000CF93DF931F92CDB7DEB7898341E050E06D
:10089000CE010196BC0180E00E94ED028981882F83
:1008A00090E0817099278095909590931B0180939B
:1008B0001A010F90DF91CF910895CF93DF931F928C
:1008C000CDB7DEB7898341E050E0CE010196BC018F
:1008D00081E00E94ED020F90DF91CF910895CF93B8
:1008E000DF931F92CDB7DEB7898341E050E0CE01A0
:1008F0000196BC0182E00E94ED020F90DF91CF9142
:100900000895CF93DF931F92CDB7DEB7898341E07F
:1009100050E0CE010196BC0183E00E94ED020F90F1
:10092000DF91CF910895CF93DF931F92CDB7DEB7BC
:10093000898341E050E0CE010196BC0184E00E9431
:10094000ED020F90DF91CF910895CF93DF931F9227
:10095000CDB7DEB7898341E050E0CE010196BC01FE
:1009600085E00E94ED020F90DF91CF910895CF9323
:10097000DF931F92CDB7DEB7898341E050E0CE010F
:100980000196BC0186E00E94ED020F90DF91CF91AD
:100990000895CF93DF931F92CDB7DEB7898341E0EF
:1009A00050E0CE010196BC0187E00E94ED020F905D
:1009B000DF91CF910895CF93DF9300D000D0CDB7D2
:1009C000DEB79A8389837C836B8389819A818230A5
:1009D00091051CF485E090E002C081E090E029815F
:1009E000265FE22F2B813C81AC01B9018E2F0E9442
:1009F000ED020F900F900F900F90DF91CF9108951F
:100A0000CF93DF9300D0CDB7DEB79A8389838981F6
:100A10009A8145E050E0BC0180E10E94ED020F9018
:100A20000F90DF91CF910895CF93DF9300D01F9265
:100A3000CDB7DEB79A8389836B8389818F5E282F38
:100A4000CE01039641E050E0BC01822F0E94ED02EE
:100A50000F900F900F90DF91CF910895CF93DF9378
:100A60001F92CDB7DEB7898341E050E0CE010196F9
:100A7000BC0187E10E94ED020F90DF91CF910895B4
:100A8000CF93DF9300D000D0CDB7DEB79A838983B0
:100A90007C836B830E943B0280EA0E94A0020BC011
:100AA00089819A81FC0180810E94A00289819A81BA
:100AB00001969A8389838B819C819C012150310905
:100AC0003C832B83009761F70E944B020F900F909D
:100AD0000F900F90DF91CF910895CF93DF93CDB713
:100AE000DEB70E943B0281EE0E94A0020E944B02F0
:100AF000DF91CF910895CF93DF93CDB7DEB70E94FA
:100B00003B0282EE0E94A0020E944B02DF91CF9135
:100B10000895CF93DF931F92CDB7DEB780911A016E
:100B200090911B01009749F00E949D038983898160
:100B3000882F90E08073992702C080E090E00F90AA
:100B4000DF91CF910895CF93DF931F92CDB7DEB79A
:100B50000E949D0389838981882F90E08074992762
:100B60000F90DF91CF910895CF93DF9300D000D005
:100B700000D0CDB7DEB79A8389837C836B835E8395
:100B80004D830E943B0281E60E94A0020DC080E0DE
:100B90000E94A002282F8B819C81FC0120838B81E5
:100BA0009C8101969C838B838D819E819C01215029
:100BB00031093E832D83009751F70E944B0280E458
:100BC0000E94C90426960FB6F894DEBF0FBECDBFB3
:100BD000DF91CF910895CF93DF9300D0CDB7DEB7EB
:100BE00089836A838981833518F489810E94A504E9
:100BF0006A8180E090E00E9414056A8181E090E0C3
:100C00000E9414050F900F90DF91CF910895CF931C
:100C1000DF93CDB7DEB710921B0110921A010E942C
:100C20005B028BE00E9440040E946B0280E30E9402
:100C3000C9040E947B05DF91CF910895CF93DF9384
:100C4000CDB7DEB781E090E090931B0180931A014D
:100C50008AE00E944004DF91CF910895CF93DF9303
:100C600000D000D0CDB7DEB79A8389837C836B83B5
:100C70000E945B020E941E060E946D050E945006A3
:100C80002B813C8189819A81B9010E9440050E9493
:100C90006B020F900F900F900F90DF91CF910895FE
:100CA000CF93DF93CDB7DEB780E091E00E94DB0603
:100CB0000E9448070E941F030E94F9060E944807ED
:100CC0000E9431030E94F9060E9448070E944303D4
:100CD0000E94F9060E9448070E9455030E94F906E7
:100CE0000E9448070E9467030E94F9060E94480775
:100CF0000E9479030E94F9060E9448070E948B0314
:100D00000E94F9060E9448070E949D030E94F9066E
:100D10000E9448070E94AF030E94F9060E944807FC
:100D20000E94C1030E94F9060E9448070E942E04F7
:100D30000E94F90686E091E00E94DB060E944807C7
:100D4000DF91CF910895CF93DF93CDB7DEB780ECDD
:100D500090E0FC01108281EC90E028E0FC0120830F
:100D600082EC90E026E0FC01208385EC90E0FC0121
:100D7000108284EC90E027E6FC012083DF91CF9184
:100D80000895CF93DF931F92CDB7DEB7898300001C
:100D900080EC90E0FC018081882F90E080729927A0
:100DA0000097B1F386EC90E02981FC0120830F903D
:100DB000DF91CF910895CF93DF9300D0CDB7DEB709
:100DC0009A8389830BC089819A81FC0180810E946A
:100DD000C10689819A8101969A83898389819A8142
:100DE000FC018081882379F70F900F90DF91CF91DC
:100DF0000895CF93DF93CDB7DEB761970FB6F89420
:100E0000DEBF0FBECDBF898B20E1EAE0F1E0CE016D
:100E10000196DC0101900D922A95E1F7898982956E
:100E20008F70882F90E09E012F5F3F4F820F931F9E
:100E3000FC0180810E94C1068989882F90E08F7013
:100E400099279E012F5F3F4F820F931FFC018081E6
:100E50000E94C10661960FB6F894DEBF0FBECDBFEB
:100E6000DF91CF910895CF93DF9300D0CDB7DEB758
:100E70009A83898389819A81892F99270E94F9060B
:100E800089810E94F9060F900F90DF91CF9108950C
:100E9000CF93DF93CDB7DEB78AE00E94C1068DE025
:0E0EA0000E94C106DF91CF910895F894FFCF14
:100EAE00537461727400456E6400303132333435E0
:0A0EBE0036373839414243444546B7
:00000001FF
